{
  "contractName": "QuadSigWallet",
  "abi": [
    {
      "inputs": [
        {
          "internalType": "address",
          "name": "_owner",
          "type": "address"
        },
        {
          "internalType": "address",
          "name": "member1",
          "type": "address"
        },
        {
          "internalType": "address",
          "name": "member2",
          "type": "address"
        },
        {
          "internalType": "address",
          "name": "member3",
          "type": "address"
        }
      ],
      "stateMutability": "nonpayable",
      "type": "constructor"
    },
    {
      "anonymous": false,
      "inputs": [
        {
          "indexed": false,
          "internalType": "uint256",
          "name": "value",
          "type": "uint256"
        },
        {
          "indexed": false,
          "internalType": "address",
          "name": "from",
          "type": "address"
        }
      ],
      "name": "Deposit",
      "type": "event"
    },
    {
      "anonymous": false,
      "inputs": [
        {
          "indexed": false,
          "internalType": "uint256",
          "name": "value",
          "type": "uint256"
        },
        {
          "indexed": false,
          "internalType": "address",
          "name": "from",
          "type": "address"
        },
        {
          "indexed": false,
          "internalType": "address",
          "name": "to",
          "type": "address"
        },
        {
          "indexed": false,
          "internalType": "uint256",
          "name": "transactionId",
          "type": "uint256"
        }
      ],
      "name": "TransactionCompleted",
      "type": "event"
    },
    {
      "anonymous": false,
      "inputs": [
        {
          "indexed": false,
          "internalType": "uint256",
          "name": "value",
          "type": "uint256"
        },
        {
          "indexed": false,
          "internalType": "address",
          "name": "from",
          "type": "address"
        },
        {
          "indexed": false,
          "internalType": "address",
          "name": "to",
          "type": "address"
        },
        {
          "indexed": false,
          "internalType": "uint256",
          "name": "transactionId",
          "type": "uint256"
        }
      ],
      "name": "TransactionCreated",
      "type": "event"
    },
    {
      "anonymous": false,
      "inputs": [
        {
          "indexed": false,
          "internalType": "address",
          "name": "signer",
          "type": "address"
        },
        {
          "indexed": false,
          "internalType": "uint256",
          "name": "transactionId",
          "type": "uint256"
        }
      ],
      "name": "TransactionSigned",
      "type": "event"
    },
    {
      "inputs": [
        {
          "internalType": "uint256",
          "name": "",
          "type": "uint256"
        }
      ],
      "name": "transactions",
      "outputs": [
        {
          "internalType": "uint256",
          "name": "value",
          "type": "uint256"
        },
        {
          "internalType": "address",
          "name": "from",
          "type": "address"
        },
        {
          "internalType": "address",
          "name": "to",
          "type": "address"
        },
        {
          "internalType": "uint8",
          "name": "signatureCount",
          "type": "uint8"
        }
      ],
      "stateMutability": "view",
      "type": "function"
    },
    {
      "stateMutability": "payable",
      "type": "receive"
    },
    {
      "inputs": [
        {
          "internalType": "address",
          "name": "to",
          "type": "address"
        },
        {
          "internalType": "uint256",
          "name": "value",
          "type": "uint256"
        }
      ],
      "name": "initiateTransaction",
      "outputs": [],
      "stateMutability": "nonpayable",
      "type": "function"
    },
    {
      "inputs": [],
      "name": "getPendingTransactionIds",
      "outputs": [
        {
          "internalType": "uint256[]",
          "name": "",
          "type": "uint256[]"
        }
      ],
      "stateMutability": "view",
      "type": "function"
    },
    {
      "inputs": [
        {
          "internalType": "uint256",
          "name": "transactionId",
          "type": "uint256"
        }
      ],
      "name": "signTransaction",
      "outputs": [],
      "stateMutability": "nonpayable",
      "type": "function"
    },
    {
      "inputs": [
        {
          "internalType": "uint256",
          "name": "transactionId",
          "type": "uint256"
        }
      ],
      "name": "deleteTransaction",
      "outputs": [],
      "stateMutability": "nonpayable",
      "type": "function"
    },
    {
      "inputs": [],
      "name": "walletBalance",
      "outputs": [
        {
          "internalType": "uint256",
          "name": "",
          "type": "uint256"
        }
      ],
      "stateMutability": "view",
      "type": "function"
    }
  ],
  "bytecode": "0x60806040523480156200001157600080fd5b50604051620012283803806200122883398181016040528101906200003791906200019d565b836000806101000a81548173ffffffffffffffffffffffffffffffffffffffff021916908373ffffffffffffffffffffffffffffffffffffffff16021790555060018060008573ffffffffffffffffffffffffffffffffffffffff1673ffffffffffffffffffffffffffffffffffffffff16815260200190815260200160002060006101000a81548160ff02191690831515021790555060018060008473ffffffffffffffffffffffffffffffffffffffff1673ffffffffffffffffffffffffffffffffffffffff16815260200190815260200160002060006101000a81548160ff02191690831515021790555060018060008373ffffffffffffffffffffffffffffffffffffffff1673ffffffffffffffffffffffffffffffffffffffff16815260200190815260200160002060006101000a81548160ff0219169083151502179055505050505062000257565b60008151905062000197816200023d565b92915050565b60008060008060808587031215620001b457600080fd5b6000620001c48782880162000186565b9450506020620001d78782880162000186565b9350506040620001ea8782880162000186565b9250506060620001fd8782880162000186565b91505092959194509250565b600062000216826200021d565b9050919050565b600073ffffffffffffffffffffffffffffffffffffffff82169050919050565b620002488162000209565b81146200025457600080fd5b50565b610fc180620002676000396000f3fe6080604052600436106100585760003560e01c8062e9c0061461009d57806339f47161146100c65780635d9ec210146100f15780639ace38c21461011a578063c3fa3acf1461015a578063cd0a314b1461018357610098565b36610098577f4bcc17093cdf51079c755de089be5a85e70fa374ec656c194480fbdcda224a53343360405161008e929190610d52565b60405180910390a1005b600080fd5b3480156100a957600080fd5b506100c460048036038101906100bf9190610c11565b6101ae565b005b3480156100d257600080fd5b506100db610447565b6040516100e89190610d15565b60405180910390f35b3480156100fd57600080fd5b5061011860048036038101906101139190610c11565b61054b565b005b34801561012657600080fd5b50610141600480360381019061013c9190610c11565b610922565b6040516101519493929190610dc0565b60405180910390f35b34801561016657600080fd5b50610181600480360381019061017c9190610bd5565b61099f565b005b34801561018f57600080fd5b50610198610ba3565b6040516101a59190610d37565b60405180910390f35b60008054906101000a900473ffffffffffffffffffffffffffffffffffffffff1673ffffffffffffffffffffffffffffffffffffffff163373ffffffffffffffffffffffffffffffffffffffff1614806102515750600160003373ffffffffffffffffffffffffffffffffffffffff1673ffffffffffffffffffffffffffffffffffffffff16815260200190815260200160002060009054906101000a900460ff165b61025a57600080fd5b6000805b60048054905081101561037457811561030f57600481815481106102ab577f4e487b7100000000000000000000000000000000000000000000000000000000600052603260045260246000fd5b906000526020600020015460046001836102c59190610e3e565b815481106102fc577f4e487b7100000000000000000000000000000000000000000000000000000000600052603260045260246000fd5b9060005260206000200181905550610361565b60048181548110610349577f4e487b7100000000000000000000000000000000000000000000000000000000600052603260045260246000fd5b906000526020600020015483141561036057600191505b5b808061036c90610ebb565b91505061025e565b5060048054806103ad577f4e487b7100000000000000000000000000000000000000000000000000000000600052603160045260246000fd5b60019003818190600052602060002001600090559055600360008381526020019081526020016000206000808201600090556001820160006101000a81549073ffffffffffffffffffffffffffffffffffffffff02191690556002820160006101000a81549073ffffffffffffffffffffffffffffffffffffffff02191690556002820160146101000a81549060ff021916905550505050565b606060008054906101000a900473ffffffffffffffffffffffffffffffffffffffff1673ffffffffffffffffffffffffffffffffffffffff163373ffffffffffffffffffffffffffffffffffffffff1614806104ec5750600160003373ffffffffffffffffffffffffffffffffffffffff1673ffffffffffffffffffffffffffffffffffffffff16815260200190815260200160002060009054906101000a900460ff165b6104f557600080fd5b600480548060200260200160405190810160405280929190818152602001828054801561054157602002820191906000526020600020905b81548152602001906001019080831161052d575b5050505050905090565b60008054906101000a900473ffffffffffffffffffffffffffffffffffffffff1673ffffffffffffffffffffffffffffffffffffffff163373ffffffffffffffffffffffffffffffffffffffff1614806105ee5750600160003373ffffffffffffffffffffffffffffffffffffffff1673ffffffffffffffffffffffffffffffffffffffff16815260200190815260200160002060009054906101000a900460ff165b6105f757600080fd5b6000600360008381526020019081526020016000209050600073ffffffffffffffffffffffffffffffffffffffff168160010160009054906101000a900473ffffffffffffffffffffffffffffffffffffffff1673ffffffffffffffffffffffffffffffffffffffff16141561066c57600080fd5b8060010160009054906101000a900473ffffffffffffffffffffffffffffffffffffffff1673ffffffffffffffffffffffffffffffffffffffff163373ffffffffffffffffffffffffffffffffffffffff1614156106c957600080fd5b8060030160003373ffffffffffffffffffffffffffffffffffffffff1673ffffffffffffffffffffffffffffffffffffffff16815260200190815260200160002060009054906101000a900460ff161561072257600080fd5b60018160030160003373ffffffffffffffffffffffffffffffffffffffff1673ffffffffffffffffffffffffffffffffffffffff16815260200190815260200160002060006101000a81548160ff02191690831515021790555080600201601481819054906101000a900460ff168092919061079d90610f04565b91906101000a81548160ff021916908360ff160217905550507fac63e7e1dc16bccf900879686e74ca33eeb175b670e3aaa9d7e4ccf3781b7a7a33836040516107e7929190610cec565b60405180910390a160028160020160149054906101000a900460ff1660ff161061091e57806000015447101561081c57600080fd5b8060020160009054906101000a900473ffffffffffffffffffffffffffffffffffffffff1673ffffffffffffffffffffffffffffffffffffffff166108fc82600001549081150290604051600060405180830381858888f1935050505015801561088a573d6000803e3d6000fd5b507fdc8b3e3bd87b1ed41b4cff3b9ab24f89261ed2b876257d5d33ed0c3472bacaf681600001548260010160009054906101000a900473ffffffffffffffffffffffffffffffffffffffff168360020160009054906101000a900473ffffffffffffffffffffffffffffffffffffffff168560405161090c9493929190610d7b565b60405180910390a161091d826101ae565b5b5050565b60036020528060005260406000206000915090508060000154908060010160009054906101000a900473ffffffffffffffffffffffffffffffffffffffff16908060020160009054906101000a900473ffffffffffffffffffffffffffffffffffffffff16908060020160149054906101000a900460ff16905084565b60008054906101000a900473ffffffffffffffffffffffffffffffffffffffff1673ffffffffffffffffffffffffffffffffffffffff163373ffffffffffffffffffffffffffffffffffffffff161480610a425750600160003373ffffffffffffffffffffffffffffffffffffffff1673ffffffffffffffffffffffffffffffffffffffff16815260200190815260200160002060009054906101000a900460ff165b610a4b57600080fd5b80471015610a5857600080fd5b600060026000815480929190610a6d90610ebb565b9190505590506000600360008381526020019081526020016000209050828160000181905550338160010160006101000a81548173ffffffffffffffffffffffffffffffffffffffff021916908373ffffffffffffffffffffffffffffffffffffffff160217905550838160020160006101000a81548173ffffffffffffffffffffffffffffffffffffffff021916908373ffffffffffffffffffffffffffffffffffffffff16021790555060008160020160146101000a81548160ff021916908360ff16021790555060048290806001815401808255809150506001900390600052602060002001600090919091909150557fe9097a4f4eddc0e5906640fcd9e1193c9db52771536ca4c8b06ab4c40aa045d283338685604051610b959493929190610d7b565b60405180910390a150505050565b600047905090565b600081359050610bba81610f5d565b92915050565b600081359050610bcf81610f74565b92915050565b60008060408385031215610be857600080fd5b6000610bf685828601610bab565b9250506020610c0785828601610bc0565b9150509250929050565b600060208284031215610c2357600080fd5b6000610c3184828501610bc0565b91505092915050565b6000610c468383610cbf565b60208301905092915050565b610c5b81610e72565b82525050565b6000610c6c82610e15565b610c768185610e2d565b9350610c8183610e05565b8060005b83811015610cb2578151610c998882610c3a565b9750610ca483610e20565b925050600181019050610c85565b5085935050505092915050565b610cc881610ea4565b82525050565b610cd781610ea4565b82525050565b610ce681610eae565b82525050565b6000604082019050610d016000830185610c52565b610d0e6020830184610cce565b9392505050565b60006020820190508181036000830152610d2f8184610c61565b905092915050565b6000602082019050610d4c6000830184610cce565b92915050565b6000604082019050610d676000830185610cce565b610d746020830184610c52565b9392505050565b6000608082019050610d906000830187610cce565b610d9d6020830186610c52565b610daa6040830185610c52565b610db76060830184610cce565b95945050505050565b6000608082019050610dd56000830187610cce565b610de26020830186610c52565b610def6040830185610c52565b610dfc6060830184610cdd565b95945050505050565b6000819050602082019050919050565b600081519050919050565b6000602082019050919050565b600082825260208201905092915050565b6000610e4982610ea4565b9150610e5483610ea4565b925082821015610e6757610e66610f2e565b5b828203905092915050565b6000610e7d82610e84565b9050919050565b600073ffffffffffffffffffffffffffffffffffffffff82169050919050565b6000819050919050565b600060ff82169050919050565b6000610ec682610ea4565b91507fffffffffffffffffffffffffffffffffffffffffffffffffffffffffffffffff821415610ef957610ef8610f2e565b5b600182019050919050565b6000610f0f82610eae565b915060ff821415610f2357610f22610f2e565b5b600182019050919050565b7f4e487b7100000000000000000000000000000000000000000000000000000000600052601160045260246000fd5b610f6681610e72565b8114610f7157600080fd5b50565b610f7d81610ea4565b8114610f8857600080fd5b5056fea2646970667358221220b6837139c9e48aa57e6de76a1e3f047a8d908ed3b0aabcac2b4095ac3e349ab364736f6c63430008000033",
  "immutableReferences": {},
  "source": "// SPDX-License-Identifier: MIT\r\npragma solidity ^0.8.0;\r\n\r\ncontract QuadSigWallet {\r\n    address private owner;\r\n    mapping(address => bool) private members;\r\n    uint256 private transactionIndex;\r\n\r\n    uint256 constant signatureRequirement = 2;\r\n\r\n    struct Transaction {\r\n        uint256 value;\r\n        address from;\r\n        address to;\r\n        uint8 signatureCount;\r\n        mapping(address => bool) signatures;\r\n    }\r\n\r\n    mapping(uint256 => Transaction) public transactions;\r\n    uint256[] private pendingTransactions;\r\n\r\n    modifier isMember() {\r\n        require(msg.sender == owner || members[msg.sender]);\r\n        _;\r\n    }\r\n\r\n    constructor(\r\n        address _owner,\r\n        address member1,\r\n        address member2,\r\n        address member3\r\n    ) {\r\n        owner = _owner;\r\n        members[member1] = true;\r\n        members[member2] = true;\r\n        members[member3] = true;\r\n    }\r\n\r\n    event Deposit(uint256 value, address from);\r\n    event TransactionCreated(\r\n        uint256 value,\r\n        address from,\r\n        address to,\r\n        uint256 transactionId\r\n    );\r\n    event TransactionSigned(address signer, uint256 transactionId);\r\n    event TransactionCompleted(\r\n        uint256 value,\r\n        address from,\r\n        address to,\r\n        uint256 transactionId\r\n    );\r\n\r\n    receive() external payable {\r\n        emit Deposit(msg.value, msg.sender);\r\n    }\r\n\r\n    function initiateTransaction(address to, uint256 value) public isMember {\r\n        require(address(this).balance >= value);\r\n        uint256 transactionId = transactionIndex++;\r\n\r\n        Transaction storage transaction = transactions[transactionId];\r\n        transaction.value = value;\r\n        transaction.from = msg.sender;\r\n        transaction.to = to;\r\n        transaction.signatureCount = 0;\r\n\r\n        pendingTransactions.push(transactionId);\r\n\r\n        emit TransactionCreated(value, msg.sender, to, transactionId);\r\n    }\r\n\r\n    function getPendingTransactionIds()\r\n        public\r\n        view\r\n        isMember\r\n        returns (uint256[] memory)\r\n    {\r\n        return pendingTransactions;\r\n    }\r\n\r\n    function signTransaction(uint256 transactionId) public isMember {\r\n        Transaction storage transaction = transactions[transactionId];\r\n\r\n        require(transaction.from != address(0));\r\n        require(msg.sender != transaction.from);\r\n        require(!transaction.signatures[msg.sender]);\r\n\r\n        transaction.signatures[msg.sender] = true;\r\n        transaction.signatureCount++;\r\n\r\n        emit TransactionSigned(msg.sender, transactionId);\r\n\r\n        if (transaction.signatureCount >= signatureRequirement) {\r\n            require(address(this).balance >= transaction.value);\r\n            payable(transaction.to).transfer(transaction.value);\r\n            emit TransactionCompleted(\r\n                transaction.value,\r\n                transaction.from,\r\n                transaction.to,\r\n                transactionId\r\n            );\r\n            deleteTransaction(transactionId);\r\n        }\r\n    }\r\n\r\n    function deleteTransaction(uint256 transactionId) public isMember {\r\n        bool replace = false;\r\n        for (uint256 i = 0; i < pendingTransactions.length; i++) {\r\n            if (replace) {\r\n                pendingTransactions[i - 1] = pendingTransactions[i];\r\n            } else if (transactionId == pendingTransactions[i]) {\r\n                replace = true;\r\n            }\r\n        }\r\n        pendingTransactions.pop();\r\n        delete transactions[transactionId];\r\n    }\r\n\r\n    function walletBalance() public view returns (uint256) {\r\n        return address(this).balance;\r\n    }\r\n}\r\n",
  "sourcePath": "C:\\Users\\zaida\\OneDrive\\Desktop\\Blockchain Dev\\Current Projects\\Musketeer\\contracts\\QuadSigWallet.sol",
  "compiler": {
    "name": "solc",
    "version": "0.8.0+commit.c7dfd78e.Emscripten.clang"
  },
  "schemaVersion": "3.4.7",
  "updatedAt": "2022-07-02T00:56:18.807Z",
  "devdoc": {
    "kind": "dev",
    "methods": {},
    "version": 1
  },
  "userdoc": {
    "kind": "user",
    "methods": {},
    "version": 1
  }
}